{
  "contractName": "ChimayToken",
  "abi": [
    {
      "constant": true,
      "inputs": [],
      "name": "totalSupply",
      "outputs": [
        {
          "name": "",
          "type": "uint256"
        }
      ],
      "payable": false,
      "stateMutability": "view",
      "type": "function",
      "signature": "0x18160ddd"
    },
    {
      "inputs": [],
      "payable": false,
      "stateMutability": "nonpayable",
      "type": "constructor",
      "signature": "constructor"
    }
  ],
  "bytecode": "0x608060405234801561001057600080fd5b50620f4240600081905550609e806100296000396000f3fe608060405260043610603f576000357c0100000000000000000000000000000000000000000000000000000000900463ffffffff16806318160ddd146044575b600080fd5b348015604f57600080fd5b506056606c565b6040518082815260200191505060405180910390f35b6000548156fea165627a7a723058205a364a6e6d44b77a4d1dbdbc4f1558e645e959f8e3eb607d6b363620b7dddc570029",
  "source": "// SPDX-License-Identifier: MIT\npragma solidity >=0.5.0 <0.8.0;\n\n/**\n * The ChimayToken smart contract implements the ERC-20 standard. It will also govern the behavior of the Chimay cryptocurrency. \n */\ncontract ChimayToken {\n\n\tuint256 public totalSupply;\n\n\t  constructor() public {\n\t    totalSupply = 1000000;\n  }\n\n  //Set the total num tokens\n  // Read the total num tokens\n}\n",
  "sourcePath": "/home/lonnie/BlockChain/erc20_token/contracts/ChimayToken.sol",
  "compiler": {
    "name": "solc",
    "version": "0.5.0+commit.1d4f565a.Emscripten.clang"
  },
  "schemaVersion": "3.0.1",
  "updatedAt": "2020-09-01T05:35:41.500Z",
  "devdoc": {
    "methods": {}
  },
  "userdoc": {
    "methods": {},
    "notice": "The ChimayToken smart contract implements the ERC-20 standard. It will also govern the behavior of the Chimay cryptocurrency. "
  }
}